{
  "_format": "hh-sol-artifact-1",
  "contractName": "PiggyBank",
  "sourceName": "contracts/PiggyBank.sol",
  "abi": [
    {
      "inputs": [
        {
          "internalType": "address",
          "name": "_owner",
          "type": "address"
        },
        {
          "internalType": "string",
          "name": "_purpose",
          "type": "string"
        },
        {
          "internalType": "uint256",
          "name": "_duration",
          "type": "uint256"
        }
      ],
      "stateMutability": "nonpayable",
      "type": "constructor"
    },
    {
      "anonymous": false,
      "inputs": [
        {
          "indexed": true,
          "internalType": "address",
          "name": "token",
          "type": "address"
        },
        {
          "indexed": false,
          "internalType": "uint256",
          "name": "amount",
          "type": "uint256"
        }
      ],
      "name": "Deposited",
      "type": "event"
    },
    {
      "anonymous": false,
      "inputs": [
        {
          "indexed": true,
          "internalType": "address",
          "name": "token",
          "type": "address"
        },
        {
          "indexed": false,
          "internalType": "uint256",
          "name": "amount",
          "type": "uint256"
        },
        {
          "indexed": false,
          "internalType": "bool",
          "name": "withPenalty",
          "type": "bool"
        }
      ],
      "name": "Withdrawn",
      "type": "event"
    },
    {
      "inputs": [],
      "name": "DAI",
      "outputs": [
        {
          "internalType": "contract IERC20",
          "name": "",
          "type": "address"
        }
      ],
      "stateMutability": "view",
      "type": "function"
    },
    {
      "inputs": [],
      "name": "PENALTY_FEE",
      "outputs": [
        {
          "internalType": "uint256",
          "name": "",
          "type": "uint256"
        }
      ],
      "stateMutability": "view",
      "type": "function"
    },
    {
      "inputs": [],
      "name": "USDC",
      "outputs": [
        {
          "internalType": "contract IERC20",
          "name": "",
          "type": "address"
        }
      ],
      "stateMutability": "view",
      "type": "function"
    },
    {
      "inputs": [],
      "name": "USDT",
      "outputs": [
        {
          "internalType": "contract IERC20",
          "name": "",
          "type": "address"
        }
      ],
      "stateMutability": "view",
      "type": "function"
    },
    {
      "inputs": [
        {
          "internalType": "address",
          "name": "",
          "type": "address"
        }
      ],
      "name": "balances",
      "outputs": [
        {
          "internalType": "uint256",
          "name": "",
          "type": "uint256"
        }
      ],
      "stateMutability": "view",
      "type": "function"
    },
    {
      "inputs": [
        {
          "internalType": "address",
          "name": "token",
          "type": "address"
        },
        {
          "internalType": "uint256",
          "name": "amount",
          "type": "uint256"
        }
      ],
      "name": "deposit",
      "outputs": [],
      "stateMutability": "nonpayable",
      "type": "function"
    },
    {
      "inputs": [],
      "name": "developer",
      "outputs": [
        {
          "internalType": "address",
          "name": "",
          "type": "address"
        }
      ],
      "stateMutability": "view",
      "type": "function"
    },
    {
      "inputs": [],
      "name": "durationEnd",
      "outputs": [
        {
          "internalType": "uint256",
          "name": "",
          "type": "uint256"
        }
      ],
      "stateMutability": "view",
      "type": "function"
    },
    {
      "inputs": [
        {
          "internalType": "address",
          "name": "token",
          "type": "address"
        }
      ],
      "name": "getBalance",
      "outputs": [
        {
          "internalType": "uint256",
          "name": "",
          "type": "uint256"
        }
      ],
      "stateMutability": "view",
      "type": "function"
    },
    {
      "inputs": [],
      "name": "getTimeLeft",
      "outputs": [
        {
          "internalType": "uint256",
          "name": "",
          "type": "uint256"
        }
      ],
      "stateMutability": "view",
      "type": "function"
    },
    {
      "inputs": [
        {
          "internalType": "address",
          "name": "token",
          "type": "address"
        }
      ],
      "name": "isSupportedToken",
      "outputs": [
        {
          "internalType": "bool",
          "name": "",
          "type": "bool"
        }
      ],
      "stateMutability": "pure",
      "type": "function"
    },
    {
      "inputs": [],
      "name": "isWithdrawn",
      "outputs": [
        {
          "internalType": "bool",
          "name": "",
          "type": "bool"
        }
      ],
      "stateMutability": "view",
      "type": "function"
    },
    {
      "inputs": [],
      "name": "owner",
      "outputs": [
        {
          "internalType": "address",
          "name": "",
          "type": "address"
        }
      ],
      "stateMutability": "view",
      "type": "function"
    },
    {
      "inputs": [],
      "name": "savingPurpose",
      "outputs": [
        {
          "internalType": "string",
          "name": "",
          "type": "string"
        }
      ],
      "stateMutability": "view",
      "type": "function"
    },
    {
      "inputs": [
        {
          "internalType": "address",
          "name": "token",
          "type": "address"
        }
      ],
      "name": "withdraw",
      "outputs": [],
      "stateMutability": "nonpayable",
      "type": "function"
    }
  ],
  "bytecode": "0x60e060405234801561001057600080fd5b50604051611c08380380611c08833981810160405281019061003291906102e9565b8273ffffffffffffffffffffffffffffffffffffffff1660808173ffffffffffffffffffffffffffffffffffffffff16815250503373ffffffffffffffffffffffffffffffffffffffff1660a08173ffffffffffffffffffffffffffffffffffffffff168152505081600090816100a9919061056f565b5080426100b69190610670565b60c081815250506000600160006101000a81548160ff0219169083151502179055505050506106a4565b6000604051905090565b600080fd5b600080fd5b600073ffffffffffffffffffffffffffffffffffffffff82169050919050565b600061011f826100f4565b9050919050565b61012f81610114565b811461013a57600080fd5b50565b60008151905061014c81610126565b92915050565b600080fd5b600080fd5b6000601f19601f8301169050919050565b7f4e487b7100000000000000000000000000000000000000000000000000000000600052604160045260246000fd5b6101a58261015c565b810181811067ffffffffffffffff821117156101c4576101c361016d565b5b80604052505050565b60006101d76100e0565b90506101e3828261019c565b919050565b600067ffffffffffffffff8211156102035761020261016d565b5b61020c8261015c565b9050602081019050919050565b60005b8381101561023757808201518184015260208101905061021c565b60008484015250505050565b6000610256610251846101e8565b6101cd565b90508281526020810184848401111561027257610271610157565b5b61027d848285610219565b509392505050565b600082601f83011261029a57610299610152565b5b81516102aa848260208601610243565b91505092915050565b6000819050919050565b6102c6816102b3565b81146102d157600080fd5b50565b6000815190506102e3816102bd565b92915050565b600080600060608486031215610302576103016100ea565b5b60006103108682870161013d565b935050602084015167ffffffffffffffff811115610331576103306100ef565b5b61033d86828701610285565b925050604061034e868287016102d4565b9150509250925092565b600081519050919050565b7f4e487b7100000000000000000000000000000000000000000000000000000000600052602260045260246000fd5b600060028204905060018216806103aa57607f821691505b6020821081036103bd576103bc610363565b5b50919050565b60008190508160005260206000209050919050565b60006020601f8301049050919050565b600082821b905092915050565b6000600883026104257fffffffffffffffffffffffffffffffffffffffffffffffffffffffffffffffff826103e8565b61042f86836103e8565b95508019841693508086168417925050509392505050565b6000819050919050565b600061046c610467610462846102b3565b610447565b6102b3565b9050919050565b6000819050919050565b61048683610451565b61049a61049282610473565b8484546103f5565b825550505050565b600090565b6104af6104a2565b6104ba81848461047d565b505050565b5b818110156104de576104d36000826104a7565b6001810190506104c0565b5050565b601f821115610523576104f4816103c3565b6104fd846103d8565b8101602085101561050c578190505b610520610518856103d8565b8301826104bf565b50505b505050565b600082821c905092915050565b600061054660001984600802610528565b1980831691505092915050565b600061055f8383610535565b9150826002028217905092915050565b61057882610358565b67ffffffffffffffff8111156105915761059061016d565b5b61059b8254610392565b6105a68282856104e2565b600060209050601f8311600181146105d957600084156105c7578287015190505b6105d18582610553565b865550610639565b601f1984166105e7866103c3565b60005b8281101561060f578489015182556001820191506020850194506020810190506105ea565b8683101561062c5784890151610628601f891682610535565b8355505b6001600288020188555050505b505050505050565b7f4e487b7100000000000000000000000000000000000000000000000000000000600052601160045260246000fd5b600061067b826102b3565b9150610686836102b3565b925082820190508082111561069e5761069d610641565b5b92915050565b60805160a05160c0516114fd61070b6000396000818161086e01528181610bc301528181610c8f0152610cc001526000818161097e0152610cf10152600081816103fb0152818161068d015281816108df01528181610a8f0152610b9a01526114fd6000f3fe608060405234801561001057600080fd5b50600436106100f55760003560e01c8063a673e31a11610097578063c7e284b811610066578063c7e284b814610264578063ca4b208b14610282578063e0bab4c4146102a0578063f8b2cb4f146102be576100f5565b8063a673e31a146101ec578063a96be5ae1461020a578063c3fafb9c14610228578063c54e44eb14610246576100f5565b806347e7ef24116100d357806347e7ef241461017857806351cff8d91461019457806389a30271146101b05780638da5cb5b146101ce576100f5565b8063240028e8146100fa57806327e235e31461012a57806344aa57001461015a575b600080fd5b610114600480360381019061010f9190610dd7565b6102ee565b6040516101219190610e1f565b60405180910390f35b610144600480360381019061013f9190610dd7565b6103ce565b6040516101519190610e53565b60405180910390f35b6101626103e6565b60405161016f9190610e1f565b60405180910390f35b610192600480360381019061018d9190610e9a565b6103f9565b005b6101ae60048036038101906101a99190610dd7565b61068b565b005b6101b8610b80565b6040516101c59190610f39565b60405180910390f35b6101d6610b98565b6040516101e39190610f63565b60405180910390f35b6101f4610bbc565b6040516102019190610e53565b60405180910390f35b610212610bc1565b60405161021f9190610e53565b60405180910390f35b610230610be5565b60405161023d919061100e565b60405180910390f35b61024e610c73565b60405161025b9190610f39565b60405180910390f35b61026c610c8b565b6040516102799190610e53565b60405180910390f35b61028a610cef565b6040516102979190610f63565b60405180910390f35b6102a8610d13565b6040516102b59190610f39565b60405180910390f35b6102d860048036038101906102d39190610dd7565b610d2b565b6040516102e59190610e53565b60405180910390f35b600073dac17f958d2ee523a2206206994597c13d831ec773ffffffffffffffffffffffffffffffffffffffff168273ffffffffffffffffffffffffffffffffffffffff16148061037d575073a0b86991c6218b36c1d19d4a2e9eb0ce3606eb4873ffffffffffffffffffffffffffffffffffffffff168273ffffffffffffffffffffffffffffffffffffffff16145b806103c75750736b175474e89094c44da98b954eedeac495271d0f73ffffffffffffffffffffffffffffffffffffffff168273ffffffffffffffffffffffffffffffffffffffff16145b9050919050565b60026020528060005260406000206000915090505481565b600160009054906101000a900460ff1681565b7f000000000000000000000000000000000000000000000000000000000000000073ffffffffffffffffffffffffffffffffffffffff163373ffffffffffffffffffffffffffffffffffffffff1614610487576040517f08c379a000000000000000000000000000000000000000000000000000000000815260040161047e9061107c565b60405180910390fd5b600160009054906101000a900460ff16156104d7576040517f08c379a00000000000000000000000000000000000000000000000000000000081526004016104ce906110e8565b60405180910390fd5b6104e0826102ee565b61051f576040517f08c379a000000000000000000000000000000000000000000000000000000000815260040161051690611154565b60405180910390fd5b60008111610562576040517f08c379a0000000000000000000000000000000000000000000000000000000008152600401610559906111c0565b60405180910390fd5b8173ffffffffffffffffffffffffffffffffffffffff166323b872dd3330846040518463ffffffff1660e01b815260040161059f939291906111e0565b6020604051808303816000875af11580156105be573d6000803e3d6000fd5b505050506040513d601f19601f820116820180604052508101906105e29190611243565b5080600260008473ffffffffffffffffffffffffffffffffffffffff1673ffffffffffffffffffffffffffffffffffffffff1681526020019081526020016000206000828254610632919061129f565b925050819055508173ffffffffffffffffffffffffffffffffffffffff167f2da466a7b24304f47e87fa2e1e5a81b9831ce54fec19055ce277ca2f39ba42c48260405161067f9190610e53565b60405180910390a25050565b7f000000000000000000000000000000000000000000000000000000000000000073ffffffffffffffffffffffffffffffffffffffff163373ffffffffffffffffffffffffffffffffffffffff1614610719576040517f08c379a00000000000000000000000000000000000000000000000000000000081526004016107109061107c565b60405180910390fd5b6000600260008373ffffffffffffffffffffffffffffffffffffffff1673ffffffffffffffffffffffffffffffffffffffff168152602001908152602001600020541161079b576040517f08c379a00000000000000000000000000000000000000000000000000000000081526004016107929061131f565b60405180910390fd5b6107a4816102ee565b6107e3576040517f08c379a00000000000000000000000000000000000000000000000000000000081526004016107da90611154565b60405180910390fd5b6000600260008373ffffffffffffffffffffffffffffffffffffffff1673ffffffffffffffffffffffffffffffffffffffff1681526020019081526020016000205490506000600260008473ffffffffffffffffffffffffffffffffffffffff1673ffffffffffffffffffffffffffffffffffffffff168152602001908152602001600020819055507f0000000000000000000000000000000000000000000000000000000000000000421015610a715760006064600f836108a5919061133f565b6108af91906113b0565b9050600081836108bf91906113e1565b90508373ffffffffffffffffffffffffffffffffffffffff1663a9059cbb7f0000000000000000000000000000000000000000000000000000000000000000836040518363ffffffff1660e01b815260040161091c929190611415565b6020604051808303816000875af115801561093b573d6000803e3d6000fd5b505050506040513d601f19601f8201168201806040525081019061095f9190611243565b508373ffffffffffffffffffffffffffffffffffffffff1663a9059cbb7f0000000000000000000000000000000000000000000000000000000000000000846040518363ffffffff1660e01b81526004016109bb929190611415565b6020604051808303816000875af11580156109da573d6000803e3d6000fd5b505050506040513d601f19601f820116820180604052508101906109fe9190611243565b5060018060006101000a81548160ff0219169083151502179055508373ffffffffffffffffffffffffffffffffffffffff167f2fd83d5e9f5d240bed47a97a24cf354e4047e25edc2da27b01fd95e5e8a0c9a5846001604051610a6292919061143e565b60405180910390a25050610b7c565b8173ffffffffffffffffffffffffffffffffffffffff1663a9059cbb7f0000000000000000000000000000000000000000000000000000000000000000836040518363ffffffff1660e01b8152600401610acc929190611415565b6020604051808303816000875af1158015610aeb573d6000803e3d6000fd5b505050506040513d601f19601f82011682018060405250810190610b0f9190611243565b5060018060006101000a81548160ff0219169083151502179055508173ffffffffffffffffffffffffffffffffffffffff167f2fd83d5e9f5d240bed47a97a24cf354e4047e25edc2da27b01fd95e5e8a0c9a5826000604051610b7392919061143e565b60405180910390a25b5050565b73a0b86991c6218b36c1d19d4a2e9eb0ce3606eb4881565b7f000000000000000000000000000000000000000000000000000000000000000081565b600f81565b7f000000000000000000000000000000000000000000000000000000000000000081565b60008054610bf290611496565b80601f0160208091040260200160405190810160405280929190818152602001828054610c1e90611496565b8015610c6b5780601f10610c4057610100808354040283529160200191610c6b565b820191906000526020600020905b815481529060010190602001808311610c4e57829003601f168201915b505050505081565b73dac17f958d2ee523a2206206994597c13d831ec781565b60007f00000000000000000000000000000000000000000000000000000000000000004210610cbd5760009050610cec565b427f0000000000000000000000000000000000000000000000000000000000000000610ce991906113e1565b90505b90565b7f000000000000000000000000000000000000000000000000000000000000000081565b736b175474e89094c44da98b954eedeac495271d0f81565b6000600260008373ffffffffffffffffffffffffffffffffffffffff1673ffffffffffffffffffffffffffffffffffffffff168152602001908152602001600020549050919050565b600080fd5b600073ffffffffffffffffffffffffffffffffffffffff82169050919050565b6000610da482610d79565b9050919050565b610db481610d99565b8114610dbf57600080fd5b50565b600081359050610dd181610dab565b92915050565b600060208284031215610ded57610dec610d74565b5b6000610dfb84828501610dc2565b91505092915050565b60008115159050919050565b610e1981610e04565b82525050565b6000602082019050610e346000830184610e10565b92915050565b6000819050919050565b610e4d81610e3a565b82525050565b6000602082019050610e686000830184610e44565b92915050565b610e7781610e3a565b8114610e8257600080fd5b50565b600081359050610e9481610e6e565b92915050565b60008060408385031215610eb157610eb0610d74565b5b6000610ebf85828601610dc2565b9250506020610ed085828601610e85565b9150509250929050565b6000819050919050565b6000610eff610efa610ef584610d79565b610eda565b610d79565b9050919050565b6000610f1182610ee4565b9050919050565b6000610f2382610f06565b9050919050565b610f3381610f18565b82525050565b6000602082019050610f4e6000830184610f2a565b92915050565b610f5d81610d99565b82525050565b6000602082019050610f786000830184610f54565b92915050565b600081519050919050565b600082825260208201905092915050565b60005b83811015610fb8578082015181840152602081019050610f9d565b60008484015250505050565b6000601f19601f8301169050919050565b6000610fe082610f7e565b610fea8185610f89565b9350610ffa818560208601610f9a565b61100381610fc4565b840191505092915050565b600060208201905081810360008301526110288184610fd5565b905092915050565b7f4e6f74206f776e65720000000000000000000000000000000000000000000000600082015250565b6000611066600983610f89565b915061107182611030565b602082019050919050565b6000602082019050818103600083015261109581611059565b9050919050565b7f46756e647320616c72656164792077697468647261776e000000000000000000600082015250565b60006110d2601783610f89565b91506110dd8261109c565b602082019050919050565b60006020820190508181036000830152611101816110c5565b9050919050565b7f556e737570706f7274656420746f6b656e000000000000000000000000000000600082015250565b600061113e601183610f89565b915061114982611108565b602082019050919050565b6000602082019050818103600083015261116d81611131565b9050919050565b7f416d6f756e74206d7573742062652067726561746572207468616e2030000000600082015250565b60006111aa601d83610f89565b91506111b582611174565b602082019050919050565b600060208201905081810360008301526111d98161119d565b9050919050565b60006060820190506111f56000830186610f54565b6112026020830185610f54565b61120f6040830184610e44565b949350505050565b61122081610e04565b811461122b57600080fd5b50565b60008151905061123d81611217565b92915050565b60006020828403121561125957611258610d74565b5b60006112678482850161122e565b91505092915050565b7f4e487b7100000000000000000000000000000000000000000000000000000000600052601160045260246000fd5b60006112aa82610e3a565b91506112b583610e3a565b92508282019050808211156112cd576112cc611270565b5b92915050565b7f4e6f2062616c616e636520746f20776974686472617700000000000000000000600082015250565b6000611309601683610f89565b9150611314826112d3565b602082019050919050565b60006020820190508181036000830152611338816112fc565b9050919050565b600061134a82610e3a565b915061135583610e3a565b925082820261136381610e3a565b9150828204841483151761137a57611379611270565b5b5092915050565b7f4e487b7100000000000000000000000000000000000000000000000000000000600052601260045260246000fd5b60006113bb82610e3a565b91506113c683610e3a565b9250826113d6576113d5611381565b5b828204905092915050565b60006113ec82610e3a565b91506113f783610e3a565b925082820390508181111561140f5761140e611270565b5b92915050565b600060408201905061142a6000830185610f54565b6114376020830184610e44565b9392505050565b60006040820190506114536000830185610e44565b6114606020830184610e10565b9392505050565b7f4e487b7100000000000000000000000000000000000000000000000000000000600052602260045260246000fd5b600060028204905060018216806114ae57607f821691505b6020821081036114c1576114c0611467565b5b5091905056fea2646970667358221220d135c7b6dbdc763b19ccdeb4e85a050ba4eaadb406936b4771093611fe8ccce664736f6c634300081c0033",
  "linkReferences": {},
  "deployedLinkReferences": {}
}